{
  "contractName": "mediChainAI",
  "abi": [
    {
      "inputs": [],
      "stateMutability": "nonpayable",
      "type": "constructor"
    },
    {
      "anonymous": false,
      "inputs": [
        {
          "indexed": true,
          "internalType": "address",
          "name": "user",
          "type": "address"
        },
        {
          "indexed": false,
          "internalType": "string",
          "name": "documentId",
          "type": "string"
        }
      ],
      "name": "AccessGranted",
      "type": "event"
    },
    {
      "anonymous": false,
      "inputs": [
        {
          "indexed": true,
          "internalType": "address",
          "name": "user",
          "type": "address"
        },
        {
          "indexed": false,
          "internalType": "string",
          "name": "documentId",
          "type": "string"
        }
      ],
      "name": "AccessRevoked",
      "type": "event"
    },
    {
      "inputs": [
        {
          "internalType": "string",
          "name": "documentId",
          "type": "string"
        },
        {
          "internalType": "bytes",
          "name": "encryptionKey",
          "type": "bytes"
        }
      ],
      "name": "createDocument",
      "outputs": [],
      "stateMutability": "nonpayable",
      "type": "function"
    },
    {
      "inputs": [
        {
          "internalType": "string",
          "name": "documentId",
          "type": "string"
        },
        {
          "internalType": "address",
          "name": "user",
          "type": "address"
        }
      ],
      "name": "grantAccess",
      "outputs": [],
      "stateMutability": "nonpayable",
      "type": "function"
    },
    {
      "inputs": [
        {
          "internalType": "string",
          "name": "documentId",
          "type": "string"
        },
        {
          "internalType": "address",
          "name": "user",
          "type": "address"
        }
      ],
      "name": "revokeAccess",
      "outputs": [],
      "stateMutability": "nonpayable",
      "type": "function"
    },
    {
      "inputs": [
        {
          "internalType": "string",
          "name": "documentId",
          "type": "string"
        }
      ],
      "name": "getEncryptionKey",
      "outputs": [
        {
          "internalType": "bytes",
          "name": "",
          "type": "bytes"
        }
      ],
      "stateMutability": "view",
      "type": "function",
      "constant": true
    }
  ],
  "bytecode": "0x608060405234801561001057600080fd5b50611057806100206000396000f3fe608060405234801561001057600080fd5b506004361061004c5760003560e01c8063110d7da1146100515780632aa3dfb71461006d578063dfe0b5fe1461009d578063f37c215e146100b9575b600080fd5b61006b60048036038101906100669190610a3f565b6100d5565b005b610087600480360381019061008291906109aa565b61021b565b6040516100949190610d3d565b60405180910390f35b6100b760048036038101906100b291906109eb565b6103ea565b005b6100d360048036038101906100ce91906109eb565b610605565b005b600080836040516100e69190610d26565b9081526020016040518091039020600001805461010290610f69565b905014610144576040517f08c379a000000000000000000000000000000000000000000000000000000000815260040161013b90610d81565b60405180910390fd5b60405180604001604052808281526020016000151581525060008360405161016c9190610d26565b90815260200160405180910390206000820151816000019080519060200190610196929190610822565b5060208201518160010160006101000a81548160ff021916908315150217905550905050336001836040516101cb9190610d26565b908152602001604051809103902060006101000a81548173ffffffffffffffffffffffffffffffffffffffff021916908373ffffffffffffffffffffffffffffffffffffffff1602179055505050565b6060600260003373ffffffffffffffffffffffffffffffffffffffff1673ffffffffffffffffffffffffffffffffffffffff1681526020019081526020016000208260405161026a9190610d26565b908152602001604051809103902060009054906101000a900460ff16806102fa575060018260405161029c9190610d26565b908152602001604051809103902060009054906101000a900473ffffffffffffffffffffffffffffffffffffffff1673ffffffffffffffffffffffffffffffffffffffff163373ffffffffffffffffffffffffffffffffffffffff16145b610339576040517f08c379a000000000000000000000000000000000000000000000000000000000815260040161033090610e01565b60405180910390fd5b6000826040516103499190610d26565b9081526020016040518091039020600001805461036590610f69565b80601f016020809104026020016040519081016040528092919081815260200182805461039190610f69565b80156103de5780601f106103b3576101008083540402835291602001916103de565b820191906000526020600020905b8154815290600101906020018083116103c157829003601f168201915b50505050509050919050565b816001816040516103fb9190610d26565b908152602001604051809103902060009054906101000a900473ffffffffffffffffffffffffffffffffffffffff1673ffffffffffffffffffffffffffffffffffffffff163373ffffffffffffffffffffffffffffffffffffffff1614610497576040517f08c379a000000000000000000000000000000000000000000000000000000000815260040161048e90610da1565b60405180910390fd5b6000836040516104a79190610d26565b908152602001604051809103902060010160009054906101000a900460ff16610505576040517f08c379a00000000000000000000000000000000000000000000000000000000081526004016104fc90610de1565b60405180910390fd5b6000600260008473ffffffffffffffffffffffffffffffffffffffff1673ffffffffffffffffffffffffffffffffffffffff168152602001908152602001600020846040516105549190610d26565b908152602001604051809103902060006101000a81548160ff0219169083151502179055506000808460405161058a9190610d26565b908152602001604051809103902060010160006101000a81548160ff0219169083151502179055508173ffffffffffffffffffffffffffffffffffffffff167f51cbcaaca6ae26944c6280c966a07b04ca5c6766d82ca497ded152579431468d846040516105f89190610d5f565b60405180910390a2505050565b816001816040516106169190610d26565b908152602001604051809103902060009054906101000a900473ffffffffffffffffffffffffffffffffffffffff1673ffffffffffffffffffffffffffffffffffffffff163373ffffffffffffffffffffffffffffffffffffffff16146106b2576040517f08c379a00000000000000000000000000000000000000000000000000000000081526004016106a990610da1565b60405180910390fd5b6000836040516106c29190610d26565b908152602001604051809103902060010160009054906101000a900460ff1615610721576040517f08c379a000000000000000000000000000000000000000000000000000000000815260040161071890610dc1565b60405180910390fd5b6001600260008473ffffffffffffffffffffffffffffffffffffffff1673ffffffffffffffffffffffffffffffffffffffff168152602001908152602001600020846040516107709190610d26565b908152602001604051809103902060006101000a81548160ff02191690831515021790555060016000846040516107a79190610d26565b908152602001604051809103902060010160006101000a81548160ff0219169083151502179055508173ffffffffffffffffffffffffffffffffffffffff167f883d542f167dfc5f47e8bf1532c171025ed0e4c59c1126c7f61749fa21976a45846040516108159190610d5f565b60405180910390a2505050565b82805461082e90610f69565b90600052602060002090601f0160209004810192826108505760008555610897565b82601f1061086957805160ff1916838001178555610897565b82800160010185558215610897579182015b8281111561089657825182559160200191906001019061087b565b5b5090506108a491906108a8565b5090565b5b808211156108c15760008160009055506001016108a9565b5090565b60006108d86108d384610e52565b610e21565b9050828152602081018484840111156108f057600080fd5b6108fb848285610f27565b509392505050565b600061091661091184610e82565b610e21565b90508281526020810184848401111561092e57600080fd5b610939848285610f27565b509392505050565b6000813590506109508161100a565b92915050565b600082601f83011261096757600080fd5b81356109778482602086016108c5565b91505092915050565b600082601f83011261099157600080fd5b81356109a1848260208601610903565b91505092915050565b6000602082840312156109bc57600080fd5b600082013567ffffffffffffffff8111156109d657600080fd5b6109e284828501610980565b91505092915050565b600080604083850312156109fe57600080fd5b600083013567ffffffffffffffff811115610a1857600080fd5b610a2485828601610980565b9250506020610a3585828601610941565b9150509250929050565b60008060408385031215610a5257600080fd5b600083013567ffffffffffffffff811115610a6c57600080fd5b610a7885828601610980565b925050602083013567ffffffffffffffff811115610a9557600080fd5b610aa185828601610956565b9150509250929050565b6000610ab682610eb2565b610ac08185610ec8565b9350610ad0818560208601610f36565b610ad981610ff9565b840191505092915050565b6000610aef82610ebd565b610af98185610ed9565b9350610b09818560208601610f36565b610b1281610ff9565b840191505092915050565b6000610b2882610ebd565b610b328185610eea565b9350610b42818560208601610f36565b80840191505092915050565b6000610b5b602883610ed9565b91507f446f63756d656e742077697468207468652073616d6520494420616c7265616460008301527f79206578697374730000000000000000000000000000000000000000000000006020830152604082019050919050565b6000610bc1602f83610ed9565b91507f4f6e6c792074686520646f63756d656e74206f776e65722063616e207065726660008301527f6f726d207468697320616374696f6e00000000000000000000000000000000006020830152604082019050919050565b6000610c27602b83610ed9565b91507f41636365737320697320616c7265616479206772616e74656420666f7220746860008301527f697320646f63756d656e740000000000000000000000000000000000000000006020830152604082019050919050565b6000610c8d602783610ed9565b91507f416363657373206973206e6f74206772616e74656420666f722074686973206460008301527f6f63756d656e74000000000000000000000000000000000000000000000000006020830152604082019050919050565b6000610cf3600d83610ed9565b91507f4163636573732064656e696564000000000000000000000000000000000000006000830152602082019050919050565b6000610d328284610b1d565b915081905092915050565b60006020820190508181036000830152610d578184610aab565b905092915050565b60006020820190508181036000830152610d798184610ae4565b905092915050565b60006020820190508181036000830152610d9a81610b4e565b9050919050565b60006020820190508181036000830152610dba81610bb4565b9050919050565b60006020820190508181036000830152610dda81610c1a565b9050919050565b60006020820190508181036000830152610dfa81610c80565b9050919050565b60006020820190508181036000830152610e1a81610ce6565b9050919050565b6000604051905081810181811067ffffffffffffffff82111715610e4857610e47610fca565b5b8060405250919050565b600067ffffffffffffffff821115610e6d57610e6c610fca565b5b601f19601f8301169050602081019050919050565b600067ffffffffffffffff821115610e9d57610e9c610fca565b5b601f19601f8301169050602081019050919050565b600081519050919050565b600081519050919050565b600082825260208201905092915050565b600082825260208201905092915050565b600081905092915050565b6000610f0082610f07565b9050919050565b600073ffffffffffffffffffffffffffffffffffffffff82169050919050565b82818337600083830152505050565b60005b83811015610f54578082015181840152602081019050610f39565b83811115610f63576000848401525b50505050565b60006002820490506001821680610f8157607f821691505b60208210811415610f9557610f94610f9b565b5b50919050565b7f4e487b7100000000000000000000000000000000000000000000000000000000600052602260045260246000fd5b7f4e487b7100000000000000000000000000000000000000000000000000000000600052604160045260246000fd5b6000601f19601f8301169050919050565b61101381610ef5565b811461101e57600080fd5b5056fea2646970667358221220a9c9684d58343351748758be29efb3278867f325514f96f2e00ca750419e7c7464736f6c63430008000033",
  "immutableReferences": {},
  "source": "// SPDX-License-Identifier: MIT\r\npragma solidity ^0.8.0;\r\n\r\ncontract mediChainAI {\r\n    struct Document {\r\n        bytes encryptionKey;\r\n        bool accessGranted;\r\n    }\r\n\r\n    mapping(string => Document) documents;\r\n    mapping(string => address) documentOwners; // Mapping to track document owners\r\n    mapping(address => mapping(string => bool)) userDocumentAccess;\r\n\r\n    event AccessGranted(address indexed user, string documentId);\r\n    event AccessRevoked(address indexed user, string documentId);\r\n\r\n    modifier onlyDocumentOwner(string memory documentId) {\r\n        require(msg.sender == documentOwners[documentId], \"Only the document owner can perform this action\");\r\n        _;\r\n    }\r\n\r\n    constructor(){\r\n        // Constructor to initialize the contract\r\n    }\r\n\r\n    function createDocument(string memory documentId, bytes memory encryptionKey) public {\r\n        require(documents[documentId].encryptionKey.length == 0, \"Document with the same ID already exists\");\r\n        documents[documentId] = Document({\r\n            encryptionKey: encryptionKey,\r\n            accessGranted: false\r\n        });\r\n        documentOwners[documentId] = msg.sender; // Set the document owner\r\n    }\r\n\r\n    function grantAccess(string memory documentId, address user) public onlyDocumentOwner(documentId) {\r\n        require(!documents[documentId].accessGranted, \"Access is already granted for this document\");\r\n        userDocumentAccess[user][documentId] = true;\r\n        documents[documentId].accessGranted = true;\r\n        emit AccessGranted(user, documentId);\r\n    }\r\n\r\n    function revokeAccess(string memory documentId, address user) public onlyDocumentOwner(documentId) {\r\n        require(documents[documentId].accessGranted, \"Access is not granted for this document\");\r\n        userDocumentAccess[user][documentId] = false;\r\n        documents[documentId].accessGranted = false;\r\n        emit AccessRevoked(user, documentId);\r\n    }\r\n\r\n    function getEncryptionKey(string memory documentId) public view returns (bytes memory) {\r\n        require(userDocumentAccess[msg.sender][documentId] || msg.sender == documentOwners[documentId], \"Access denied\");\r\n        return documents[documentId].encryptionKey;\r\n    }\r\n}\r\n",
  "sourcePath": "C:\\Users\\Parth Shethji\\Desktop\\College\\sem5\\EDI\\Sem 5\\final_V2\\backend\\contracts\\mediChainAI.sol",
  "compiler": {
    "name": "solc",
    "version": "0.8.0+commit.c7dfd78e.Emscripten.clang"
  },
  "schemaVersion": "3.4.16",
  "updatedAt": "2023-11-17T08:52:18.334Z",
  "networkType": "ethereum",
  "devdoc": {
    "kind": "dev",
    "methods": {},
    "version": 1
  },
  "userdoc": {
    "kind": "user",
    "methods": {},
    "version": 1
  }
}